:040000005EEF00F0BF
:10000800FACF2DF0FBCF2EF0E9CF2FF0EACF30F06A
:10001800E1CF31F0E2CF32F0D9CF33F0DACF34F09C
:10002800F3CF35F0F4CF36F0F6CF37F0F7CF38F01E
:10003800F8CF39F0F5CF3AF09DA001D001D007D024
:100048009EA001D001D003D0EFEC10F000D0A0A208
:1000580001D001D007D0A1A201D001D003D027EC54
:1000680021F000D09DAC01D001D007D09EAC01D0CA
:1000780001D003D011EC21F000D03AC0F5FF39C00F
:10008800F8FF38C0F7FF37C0F6FF36C0F4FF35C0B9
:10009800F3FF34C0DAFF33C0D9FF32C0E2FF31C00A
:1000A800E1FF30C0EAFF2FC0E9FF2EC0FBFF2DC0E3
:0800B800FAFF1100C9EF1FF06F
:100F000001000105090001010205090101020305B3
:100F10000902010304050903010405020802050989
:100F20000400050504070605090500050603060279
:100F300005090600020406080B0E3200C8001E0058
:100F400000402E2E2E2E2E2E2E2100595959595F3B
:100F5000595921002569000005C001F0066E000EF8
:100F6000026E0650000E83B0010E036E54EC1AF0B0
:100F70000528016E066E000E026E0650000E83B24A
:100F8000010E036E54EC1AF00550020F016E066E4E
:100F9000010E026E0650000E83B0010E036E54EC7B
:100FA0001AF00550030F016E066E010E026E065018
:100FB000000E83B2010E036E54EC1AF0D5D24BA48E
:100FC00001D001D012D00550066E076A010E062628
:100FD000000E07224B50030B086E0850061807102E
:100FE000D8B401D001D006D000D0000E0A6E000E99
:100FF000096E0DD04B50FB0B00094B6E4B30E832A5
:10100000010B0009000ED8B4010E096E0A6A0A50DD
:101010000910D8B401D001D00BD00550010D4F0EEE
:10102000F324D96EDA6A000EDA22020EDF6EBBD22A
:101030004A38E832030B0009D8A401D001D005D00A
:10104000000E0C6E000E0B6E0DD04A509F0B000967
:101050004A6E4A38E832030B0009000ED8B4010E7C
:101060000B6E0C6A0C500B10D8B401D001D09BD27F
:101070000550010D4F0EF324D96EDA6A000EDA2204
:10108000000EDF6E90D28FD28ED24BA401D001D051
:1010900012D00550066E076A020E0626000E0722C1
:1010A0004B50030B086E085006180710D8B401D037
:1010B00001D006D000D0000E0E6E000E0D6E0DD0C9
:1010C0004B50FB0B00094B6E4B30E832010B000913
:1010D000000ED8B4010E0D6E0E6A0E500D10D8B46D
:1010E00001D001D00BD00550010D4F0EF324D96E65
:1010F000DA6A000EDA22030EDF6E55D24A38E83281
:10110000030B0009D8A401D001D005D0000E106E49
:10111000000E0F6E0DD04A509F0B00094A6E4A38E0
:10112000E832030B0009000ED8B4010E0F6E106AEE
:1011300010500F10D8B401D001D035D20550010D98
:101140004F0EF324D96EDA6A000EDA22000EDF6E3B
:101150002AD229D228D24BA401D001D012D00550D6
:10116000066E076A030E0626000E07224B50030B7D
:10117000086E085006180710D8B401D001D006D068
:1011800000D0000E126E000E116E0DD04B50FB0BF6
:1011900000094B6E4B30E832010B0009000ED8B449
:1011A000010E116E126A12501110D8B401D001D084
:1011B00014D00550010D4F0EF324D96EDA6A000EDB
:1011C000DA22000EDF6E4A500518E00B05184A6E51
:1011D0004A509F0B20094A6EE6D14A38E832030B89
:1011E0000009D8A401D001D005D0000E146E000E65
:1011F000136E0DD04A509F0B00094A6E4A38E832F0
:10120000030B0009000ED8B4010E136E146A1450BB
:101210001310D8B401D001D0C6D10550010D4F0E26
:10122000F324D96EDA6A000EDA22000EDF6EBBD12B
:10123000BAD1B9D14BA401D001D008D04B50030B87
:101240000518D8B401D001D006D000D0000E166E1B
:10125000000E156E0DD04B50FB0B00094B6E4B3042
:10126000E832010B0009000ED8B4010E156E166AA3
:1012700016501510D8B401D001D00BD00550010D77
:101280004F0EF324D96EDA6A000EDA22050EDF6EF5
:101290008AD14A38E832030B0009D8A401D001D022
:1012A00005D0000E186E000E176E0DD04A509F0B21
:1012B00000094A6E4A38E832030B0009000ED8B420
:1012C000010E176E186A18501710D8B401D001D04B
:1012D0006AD10550010D4F0EF324D96EDA6A000E63
:1012E000DA22000EDF6E5FD15ED15DD14BA401D05A
:1012F00001D012D00550066E076A030E0626000EB6
:1013000007224B50030B086E085006180710D8B47C
:1013100001D001D006D000D0000E1A6E000E196E5A
:101320000DD04B50FB0B00094B6E4B30E832010BDC
:101330000009000ED8B4010E196E1A6A1A5019105D
:10134000D8B401D001D00BD00550010D4F0EF324BD
:10135000D96EDA6A000EDA22060EDF6E24D14A3820
:10136000E832030B0009D8A401D001D005D0000E4B
:101370001C6E000E1B6E0DD04A509F0B00094A6E6A
:101380004A38E832030B0009000ED8B4010E1B6E78
:101390001C6A1C501B10D8B401D001D004D10550D8
:1013A000010D4F0EF324D96EDA6A000EDA22000E18
:1013B000DF6EF9D0F8D0F7D04BA401D001D012D015
:1013C0000550066E076A020E0626000E07224B50D5
:1013D000030B086E085006180710D8B401D001D0CE
:1013E00006D000D0000E1E6E000E1D6E0DD04B50AC
:1013F000FB0B00094B6E4B30E832010B0009000E6D
:10140000D8B4010E1D6E1E6A1E501D10D8B401D036
:1014100001D014D00550010D4F0EF324D96EDA6AB5
:10142000000EDA22000EDF6E4A500518E00B051898
:101430004A6E4A509F0B40094A6EB5D04A38E8328E
:10144000030B0009D8A401D001D005D0000E206EF6
:10145000000E1F6E0DD04A509F0B00094A6E4A388D
:10146000E832030B0009000ED8B4010E1F6E206A8B
:1014700020501F10D8B401D001D095D00550010DD7
:101480004F0EF324D96EDA6A000EDA22000EDF6EF8
:101490008AD089D088D04BA401D001D008D04B503D
:1014A000030B0518D8B401D001D006D000D0000E2F
:1014B000226E000E216E0DD04B50FB0B00094B6EBF
:1014C0004B30E832010B0009000ED8B4010E216E3A
:1014D000226A22502110D8B401D001D00BD005507F
:1014E000010D4F0EF324D96EDA6A000EDA22010ED6
:1014F000DF6E00D04BA401D001D012D00550066E93
:10150000076A010E0626000E07224B50030B086ED9
:10151000085006180710D8B401D001D006D000D06A
:10152000000E246E000E236E0DD04B50FB0B0009F5
:101530004B6E4B30E832010B0009000ED8B4010E9F
:10154000236E246A24502310D8B401D001D02BD0AC
:101550000550010D4F0EF324D96EDA6A000EDA221F
:10156000040EDF6E20D01FD00550010D4F0EF32466
:10157000D96EDA6A000EDA22DF50000AD8B48BD7AF
:10158000010AD8B41CD5030AD8B47FD5010AD8B44F
:10159000E2D5070AD8B44ED6010AD8B4A7D6030AB2
:1015A000D8B40AD700D012000001000E00010001DB
:1015B000B26F0001910E0001B16F8FC0ADF090C00D
:1015C000AEF0EAD10001ADC0F6FF0001AEC0F7FFFA
:1015D000000EF86E0800F550250AD8B401D001D0ED
:1015E000ABD10001ADC0F6FF0001AEC0F7FF000EA9
:1015F000F86E08000001F5CF60F08DC061F08EC07C
:1016000062F0B0EC1EF0C3D197D100D0B1C0D9FFC9
:10161000B2C0DAFF0001DECFABF00001DDCFACF0ED
:10162000020E00010001B127000E0001B223ABC081
:1016300069F0ACC06AF00001000E000100016C6F9F
:101640000001940E00016B6F0001936F0C0E0001FE
:1016500000016D6F00019351A2EC18F0000169C008
:10166000AFF000016AC0B0F013D0AFC0D9FFB0C076
:10167000DAFFDF5000010001606F8DC061F08EC0A5
:1016800062F0B0EC1EF000010001AF4BB02B00D0B7
:10169000AFC0D9FFB0C0DAFFDF50D8A401D001D06D
:1016A000E4D775D174D100010001AD4BAE2BB1C0B0
:1016B000D9FFB2C0DAFF0001DECFA3F00001DECF18
:1016C000A4F00001DECFA5F00001DECFA6F0040EED
:1016D00000010001B127000E0001B223A3C06FF08A
:1016E000A4C070F0A5C071F0A6C072F00001000E99
:1016F00000010001746F0001940E0001736F00017E
:10170000936F0C0E00010001756F00019351E0EC26
:1017100015F000016FC0AFF0000170C0B0F013D041
:10172000AFC0D9FFB0C0DAFFDF5000010001606F29
:101730008DC061F08EC062F0B0EC1EF000010001BF
:10174000AF4BB02B00D0AFC0D9FFB0C0DAFFDF5035
:10175000D8A401D001D0E4D71AD119D1B1C0D9FF92
:10176000B2C0DAFF0001DECFABF00001DDCFACF09C
:10177000020E00010001B127000E0001B223ABC030
:1017800060F08DC061F08EC062F0B0EC1EF0FFD052
:10179000B1C0D9FFB2C0DAFF0001DECFA7F000016F
:1017A000DDCFA8F0020E00010001B127000E0001FC
:1017B000B223A7C068F0A8C069F00001000E0001C4
:1017C00000016B6F0001940E00016A6F0001936FBE
:1017D0000C0E000100016C6F00019351ABEC1DF089
:1017E000000168C0AFF0000169C0B0F013D0AFC015
:1017F000D9FFB0C0DAFFDF5000010001606F8DC07B
:1018000061F08EC062F0B0EC1EF000010001AF4B41
:10181000B02B00D0AFC0D9FFB0C0DAFFDF50D8A4E2
:1018200001D001D0E4D7B3D0B2D0B1C0D9FFB2C09B
:10183000DAFF0001DECFA0F00001DECFA1F0000151
:10184000DDCFA2F0030E00010001B127000E000160
:10185000B2239DD0B1C0D9FFB2C0DAFF0001DECF04
:10186000A0F00001DECFA1F00001DDCFA2F0030E59
:1018700000010001B127000E0001B22388D0B1C0E1
:10188000D9FFB2C0DAFF0001DECFA0F00001DECF49
:10189000A1F00001DDCFA2F0030E00010001B1278D
:1018A000000E0001B22373D0B1C0D9FFB2C0DAFF7D
:1018B0000001DECFA9F00001DDCFAAF0020E000189
:1018C0000001B127000E0001B22317D00001A9C00A
:1018D000F6FF0001AAC0F7FF000EF86E0800000135
:1018E000F5CF60F08DC061F08EC062F0B0EC1EF0FC
:1018F00000010001A94BAA2B00D0A9C0D9FFAAC0A2
:10190000DAFFDF50D8A401D001D0E0D740D03FD0DB
:101910000001ADC0F6FF0001AEC0F7FF000EF86E8B
:1019200008000001F5CF60F08DC061F08EC062F05C
:10193000B0EC1EF02CD02BD0000120EEADF0DE2A52
:10194000000EDD22DECFF6FFDDCFF7FF000EF86ED2
:101950000800F550630AD8B401D7070AD8B456D6A0
:10196000010AD8B462D7030AD8B474D7010AD8B42C
:1019700086D70E0AD8B44AD6050AD8B494D61F0A18
:10198000D8B492D7060AD8B403D7C2D700D0000182
:101990000001AD4BAE2B00D00001ADC0F6FF000141
:1019A000AEC0F7FF000EF86E0800F5500009D8A48D
:1019B00001D001D007D600D0120060C0D9FF61C0AD
:1019C000DAFFF70EDF1660D160C0D9FF61C0DAFF21
:1019D000DF500001666F000166A101D001D02BD05D
:1019E000000120EE05F000016051D926000161518F
:1019F000DA22000110EE01F000016051E126000141
:101A00006151E222DECFE6FFDDCFE5FF000120EEEF
:101A100009F000016051D92600016151DA2200016C
:101A200010EE07F000016051E12600016151E22251
:101A3000DFCFE7FF00D060C0D9FF61C0DAFFDF5021
:101A40000001666F000166A301D001D035D100010D
:101A500020EE05F000016051D92600016151DA2223
:101A6000000110EE03F000016051E1260001615118
:101A7000E222DECFE6FFDDCFE5FF000120EE09F038
:101A800000016051D92600016151DA22000110EEF7
:101A900008F000016051E12600016151E222DFCF30
:101AA000E7FF0AD109D160C0D9FF61C0DAFFDF507A
:101AB0000001666F000166A101D001D037D000019E
:101AC00020EE09F000016051D92600016151DA22AF
:101AD000DF50010D000120EE05F000016051D92614
:101AE00000016151DA22DECF66F0DDCF67F0F350FE
:101AF00000016627000E00016723000120EE01F0BF
:101B000000016051D92600016151DA2266C0DEFF72
:101B100067C0DDFF000120EE08F000016051D9260A
:101B200000016151DA22000EDF6E00D060C0D9FFE3
:101B300061C0DAFFDF500001666F000166A301D0CB
:101B400001D0BAD0000120EE09F000016051D92681
:101B500000016151DA22DF50010D000120EE05F095
:101B600000016051D92600016151DA22DECF66F012
:101B7000DDCF67F0F35000016627000E00016723F8
:101B8000000120EE03F000016051D92600016151EF
:101B9000DA2266C0DEFF67C0DDFF000120EE08F03C
:101BA00000016051D92600016151DA22000EDF6E7A
:101BB00083D082D060C0D9FF61C0DAFFDF5000015E
:101BC000666F000166A101D001D01CD0000120EE9B
:101BD00001F000016051D92600016151DA220001B3
:101BE00000016251DE26000EDD22000120EE08F029
:101BF00000016051D92600016151DA220001000183
:101C00006251DF5E60C0D9FF61C0DAFFDF500001C2
:101C1000666F000166A301D001D04ED0000120EE16
:101C200003F000016051D92600016151DA22DECFB4
:101C300066F0DDCF67F00001000162510001662708
:101C4000E86A0001000162BFE86800016723000143
:101C500020EE03F000016051D92600016151DA2223
:101C600066C0DEFF67C0DDFF000120EE08F0000166
:101C70006051D92600016151DA2200010001625150
:101C8000DF5E1AD019D018D0000164C066F00001E0
:101C900065C067F000016751000AD8B401D00CD0CC
:101CA00000016651000AD8B4FED6010AD8B482D722
:101CB000030AD8B489D600D01200056E050E106E46
:101CC0000550330EF66E0F0EF76E000EF86E08001C
:101CD000F5505F18D8A401D001D021D03DB201D079
:101CE00001D005D0000E076E000E066E0CD03D50E0
:101CF000FD0B00093D6E3D30010B0009000ED8B40C
:101D0000010E066E076A07500610D8B401D001D044
:101D100006D0056E010E106E055001D000D0340EB5
:101D2000F66E0F0EF76E000EF86E0800F5505F1895
:101D3000D8A401D001D021D03DB201D001D005D02E
:101D4000000E096E000E086E0CD03D50FD0B000910
:101D50003D6E3D30010B0009000ED8B4010E086E37
:101D6000096A09500810D8B401D001D006D0056E18
:101D7000010E106E055001D000D0350EF66E0F0E1C
:101D8000F76E000EF86E0800F5505F18D8A401D069
:101D900001D021D03DB201D001D005D0000E0B6E94
:101DA000000E0A6E0CD03D50FD0B00093D6E3D301B
:101DB000010B0009000ED8B4010E0A6E0B6A0B501D
:101DC0000A10D8B401D001D006D0056E010E106EF5
:101DD000055001D000D0360EF66E0F0EF76E000ED5
:101DE000F86E0800F5505F18D8A401D001D021D0BA
:101DF0003DB201D001D005D0000E0D6E000E0C6E6C
:101E00000CD03D50FD0B00093D6E3D30010B00092B
:101E1000000ED8B4010E0C6E0D6A0D500C10D8B423
:101E200001D001D006D0056E010E106E055001D014
:101E300000D0370EF66E0F0EF76E000EF86E08002B
:101E4000F5505F18D8A401D001D02BD03DB201D0FD
:101E500001D005D0000E0F6E000E0E6E0CD03D505E
:101E6000FD0B00093D6E3D30010B0009000ED8B49A
:101E7000010E0E6E0F6A0F500E10D8B401D001D0B3
:101E800010D05AA401D001D005D0056E010E106EFD
:101E9000055007D0056E020E106E055002D001D01D
:101EA00000D0380EF66E0F0EF76E000EF86E0800BA
:101EB000F5505F18D8A401D001D020D00001000E49
:101EC000026E0001D90E016E97EC1FF00A0AD8A429
:101ED00001D001D005D0056E040E106E05500ED055
:101EE0000001000E026E0001D90E016E99EC20F087
:101EF000056E000E106E055001D000D0390EF66E42
:101F00000F0EF76E000EF86E0800F5505F18D8A49B
:101F100001D001D021D00001000E026E0001D90EC7
:101F2000016E97EC1FF0056E0528D8A401D001D0F2
:101F300005D0056E030E106E05500ED00001000E88
:101F4000026E0001D90E016E99EC20F0056E000EB4
:101F5000106E055001D000D0105000D0120028ECB7
:101F60001FF036EC1EF036EC21F0D1EC20F0409260
:101F70003C0EF66E0F0EF76E000EF86E0900F5CFF0
:101F80003EF00A00F5CF3FF04094408083983DEC4E
:101F900021F000010001E58500D03EEC21F040B2C7
:101FA00001D001D008D0000E00010001B56F000E75
:101FB0000001B46F0FD04050FD0B0009406E40305F
:101FC000010B0009000ED8B4010E00010001B46F2E
:101FD0000001B56B00010001B551B411D8B401D0B6
:101FE00001D0DBD738EC19F000010001E3A101D0EA
:101FF00001D014D000010001E451020AD8A401D09C
:1020000001D00CD01CEC21F0000160C0E8F0000110
:1020100061C0E9F000010001E58500D00001000188
:10202000D99100010001D9830001000E00010001D7
:10203000616F0001D90E0001606F000E0001000108
:10204000636F000E0001626F000E00010001656FFA
:10205000020E0001646FDDEC0CF00001000E0001C7
:1020600000018E6F0001D90E00018D6F0F0E00016F
:102070000001906F420E00018F6FD4EC0AF0000156
:10208000B36F0A0E00010001606F0001B35100013F
:10209000000E00010001626F0001D90E0001616FA6
:1020A000B0EC1EF00001000E000100018E6F000177
:1020B000D90E00018D6F0F0E00010001906F4B0EC5
:1020C00000018F6FD4EC0AF00001000E0001000146
:1020D000616F0001D90E0001606F000E0001000168
:1020E000636F000E0001626F000E00010001656F5A
:1020F000020E0001646FDDEC0CF00001000E000127
:1021000000018E6F0001D90E00018D6F0F0E0001CE
:102110000001906F540E00018F6F48C091F049C0CC
:1021200092F0D4EC0AF00001000E00010001616F92
:102130000001D90E0001606F000E00010001636F05
:10214000080E0001626F000E00010001656F010EB4
:102150000001646FDDEC0CF00001000E00010001D5
:102160008E6F0001D90E00018D6F0F0E000100016E
:10217000906F540E00018F6F040E00010001706F0C
:10218000B60E00010001716F3E0E00010001726F7A
:10219000E8C068F0E9C069F073EC1EF068C06DF04B
:1021A00069C06EF06AC06FF020EC12F06DC07EF076
:1021B0006EC07FF06FC080F034EC13F07EC091F001
:1021C0007FC092F0D4EC0AF000010001D993000125
:1021D0000001D981E2D6E1D6E0D65EEF00F0F80E3C
:1021E000CF6EE00ECE6E256E000E016E255055ECC2
:1021F0001BF0256E010E016E255055EC1BF0256E6F
:10220000020E016E255055EC1BF0A8EC1CF04A386C
:10221000E832030B256E2504D8A401D001D008D0E4
:102220004A501F0B0009D8B401D001D006D000D00D
:10223000000E286E000E276E0DD04A509F0B00092D
:102240004A6E4A38E832030B0009000ED8B4010E7A
:10225000276E286A28502710D8B401D001D020D08A
:1022600020EE48F0DE52DD50800A7D0FE70ED8B434
:10227000DF5CD8B001D001D013D0484A492A5A8433
:10228000808043923E0EF66E0F0EF76E000EF86ED3
:102290000900F5CF41F00A00F5CF42F0439400D099
:1022A0004A38E832030B020AD8A401D001D008D082
:1022B0004A501F0B0009D8B401D001D006D000D07D
:1022C000000E2A6E000E296E0DD04A509F0B000999
:1022D0004A6E4A38E832030B0009000ED8B4010EEA
:1022E000296E2A6A2A502910D8B401D001D021D0F1
:1022F00020EE48F0DE52DD50800A800F010ED8B487
:10230000DF5CD8A001D001D014D04806D8A049067F
:102310005A84808043923E0EF66E0F0EF76E000ECA
:10232000F86E0900F5CF41F00A00F5CF42F0439472
:1023300000D043B201D001D005D0000E2C6E000EAB
:102340002B6E0CD04350FD0B0009436E4330010B44
:102350000009000ED8B4010E2B6E2C6A2C502B10E5
:10236000D8B401D001D002D0809000D0256E000EEC
:10237000056E2550ACEC07F0256E000E016E255061
:10238000266E000E026E2650000E82BA010E036EFB
:1023900009EC18F0256E010E016E2550266E000E18
:1023A000026E2650000E83BA010E036E09EC18F07F
:1023B000256E020E016E2550266E000E026E26500E
:1023C000000E81B0010E036E09EC18F0256E030EAD
:1023D000016E2550266E000E026E2650000E81BA48
:1023E000010E036E09EC18F0256E040E016E2550E7
:1023F000266E000E026E2650000E80BC010E036E8B
:1024000009EC18F0256E050E016E2550266E000EA3
:10241000026E2650000E82B0010E036E09EC18F019
:10242000256E080E016E2550266E000E026E265097
:10243000000E82B2010E036E09EC18F09E9012009D
:102440000F0E0001736F00016DC074F000016EC0CB
:1024500075F000016FC076F0000173290001776FFD
:1024600005D00001D8907633753374330001772F8F
:10247000F8D70001745100010001786F00017867FE
:1024800001D001D00ED0000E000100016D6F000ED2
:10249000000100016E6F000E000100016F6FE3D0BC
:1024A000E2D00F0E0001736F000170C074F00001E4
:1024B00071C075F0000172C076F00001732900014F
:1024C000776F05D00001D8907633753374330001EF
:1024D000772FF8D700017451000100017D6F0001D2
:1024E0007D6701D001D00ED0000E000100016D6F9C
:1024F000000E000100016E6F000E000100016F6F01
:10250000B2D0B1D0000100017D517B0F000100016C
:1025100078276FC07DF000017251000100017D1B22
:10252000800E000100017D17000100016E8F000187
:102530000001718FFF0E000100017017FF0E0001F6
:1025400000017117000E000100017217000E00015A
:102550000001796F000E000100017A6F000E00018A
:1025600000017B6F0001736F070E000100017C6F9B
:102570000001735100D0000100016DA101D001D014
:1025800013D0000100017051000100017927000102
:1025900000017151000100017A2300010001725114
:1025A000000100017B2300D00001D89000016F33AF
:1025B00000016E3300016D330001D89000017037C7
:1025C0000001713700017237000100017C2FD3D761
:1025D00000D00001736F090E000100017C6F000143
:1025E000735100D0000100016DA101D001D013D0C2
:1025F0000001000170510001000179270001000174
:102600007151000100017A230001000172510001A3
:1026100000017B2300D00001D89000016F3300013E
:102620006E3300016D330001D89000017B3300014F
:102630007A3300017933000100017C2FD3D700D019
:1026400079C060F07AC061F07BC062F078C063F05E
:102650007DC064F0A6EC16F060C06DF061C06EF055
:1026600062C06FF000D012000F0E0001826F0001F7
:102670007EC083F000017FC084F0000180C085F03F
:10268000000182290001866F05D00001D8908533B2
:10269000843383330001862FF8D700018351000172
:1026A00000018C6F00018C6701D001D00FD0000EAB
:1026B000000100017E6F000E00017F6F000E00011F
:1026C000806F000E0001816FC0D0BFD0170E0001D7
:1026D000826F00017EC083F000017FC084F00001A2
:1026E00080C085F0000182290001866F05D00001BD
:1026F000D8908533843383330001862FF8D70001C7
:10270000835100010001876F000100017F8FFF0EE0
:10271000000100017E17FF0E000100017F17000E6F
:10272000000100018017000100017E51000100013D
:10273000886F000100017F510001896F0001805105
:1027400000018A6F00018B6B8E0E000100018C5F0F
:10275000000100018CAF01D001D029D0000100019F
:102760008C51800A8F0FD8B001D001D010D0000E4C
:10277000000100017E6F000E00017F6F000E00015E
:10278000806F000E0001816F60D05FD000D000012B
:10279000D89000018B3300018A3300018933000196
:1027A0008833000100018C3FF2D72ED02DD0170EB8
:1027B000000100018C6501D001D01ED0000E000187
:1027C00000017E6F000E00017F6F000E0001806F20
:1027D000000E0001816F39D038D00ED00001D890A2
:1027E000000188370001893700018A3700018B37E3
:1027F000000100018C0700D0000100018C6701D0AE
:1028000001D0ECD701D000D0000100018751D8B42D
:1028100001D001D011D0000100018B1F00018A1FDF
:102820000001891F0001886D000E0001892300014D
:102830008A2300018B2300D088C07EF089C07FF0FE
:102840008AC080F08BC081F000D012000001686F58
:10285000000E000100016A6F0001685100010001D3
:1028600067AF01D001D019D000010001671F00013E
:10287000661F0001651F0001646D000E00016523E5
:1028800000016623000167230001686F010E00014B
:1028900000016A6F0001685100D00001000163AFC0
:1028A00001D001D015D000010001631F0001621F9B
:1028B0000001611F0001606D000E00016123000135
:1028C000622300016323010E000100016A1B00D096
:1028D000000E000100016B6F000E00016C6F000E16
:1028E00000016D6F000E00016E6F00010001675165
:1028F000641165116611D8B401D001D071D0000106
:10290000686F010E00010001696F000168510ED06F
:102910000001D89000016437000165370001663777
:102920000001673700010001692B00D000010001A0
:1029300067AF01D001D0ECD701D000D00001D89012
:1029400000016B3700016C3700016D3700016E37F5
:1029500000010001645100010001605D00010001FF
:10296000655100010001615900010001665100013B
:102970000001625900010001675100010001635923
:10298000D8A001D001D01CD0000100016451000189
:102990000001605F00010001655100010001615B01
:1029A00000010001665100010001625B00010001AD
:1029B000675100010001635B000100016B8100D0E1
:1029C0000001D890000167330001663300016533D0
:1029D0000001643300010001692FB0D701D000D09D
:1029E000000100016A51D8B401D001D011D000011A
:1029F00000016E1F00016D1F00016C1F00016B6D57
:102A0000000E00016C2300016D2300016E2300D035
:102A10006BC060F06CC061F06DC062F06EC063F0BE
:102A200000D012000001686F000E000100016A6F03
:102A3000000168510001000163AF01D001D019D03D
:102A400000010001631F0001621F0001611F0001FE
:102A5000606D000E00016123000162230001632309
:102A60000001686F010E000100016A6F00016851EA
:102A700000D00001000167AF01D001D011D00001EA
:102A80000001671F0001661F0001651F0001646DE2
:102A9000000E00016523000166230001672300D0BA
:102AA000000100016751641165116611D8B401D0AD
:102AB00001D064D00001686F010E00010001696F50
:102AC000000168510ED00001D89000016437000168
:102AD0006537000166370001673700010001692B87
:102AE00000D00001000167AF01D001D0ECD701D0C8
:102AF00000D000010001645100010001605D00018F
:102B00000001655100010001615900010001665199
:102B1000000100016259000100016751000100013C
:102B20006359D8A001D001D019D00001000164512F
:102B300000010001605F000100016551000100011A
:102B4000615B00010001665100010001625B000150
:102B50000001675100010001635B00D00001D890C3
:102B600000016733000166330001653300016433FF
:102B700000010001692FBDD701D000D00001000184
:102B80006A51D8B401D001D011D000010001631FF7
:102B90000001621F0001611F0001606D000E000155
:102BA0006123000162230001632300D060C060F054
:102BB00061C061F062C062F063C063F000D01200D7
:102BC000000100017505000100017327000E0001DE
:102BD0000001742373C0D9FF74C0DAFF000EDF6EEA
:102BE0000001000172AF01D001D05DD000D06FC0F4
:102BF00060F070C061F071C062F072C063F00A0EE4
:102C000000010001646F000E0001656F000E0001FD
:102C1000666F000E0001676F12EC15F000010001F5
:102C200060510008300F000100017307D8A074073D
:102C300073C0D9FF74C0DAFFDF6E6FC060F070C080
:102C400061F071C062F072C063F00A0E0001000111
:102C5000646F000E0001656F000E0001666F000ECC
:102C60000001676F26EC14F060C06FF061C070F077
:102C700062C071F063C072F0000172516F11701187
:102C80007111D8A401D001D0B2D700D00001000149
:102C90007307D8A0740773C0D9FF74C0DAFF2D0E74
:102CA000DF6E4FD000D06FC060F070C061F071C0B7
:102CB00062F072C063F00A0E00010001646F000E42
:102CC0000001656F000E0001666F000E0001676F66
:102CD00012EC15F0000100016051300F00010001FD
:102CE0007307D8A0740773C0D9FF74C0DAFFDF6E12
:102CF0006FC060F070C061F071C062F072C063F0CC
:102D00000A0E00010001646F000E0001656F000EE5
:102D10000001666F000E0001676F26EC14F060C0C2
:102D20006FF061C070F062C071F063C072F00001BA
:102D300072516F1170117111D8A401D001D0B3D7A5
:102D400000D073C06FF074C070F012000001000179
:102D50006351D8B401D001D00CD000010001605102
:102D60000001611100016211D8A401D001D01CD072
:102D700000D0000E00010001606F000E0001000194
:102D8000616F000E00010001626FA1D0A0D00CD0D5
:102D900000010001632B0001D890000162330001A3
:102DA00061330001603300D0000E000100016015A6
:102DB0000001656F000E000100016115666FFE0ED7
:102DC000000100016215676F00016551661167110E
:102DD000D8A401D001D0DCD719D018D0000100014F
:102DE000632B010E000100016027000E00010001AD
:102DF0006123000E0001000162230001D890000150
:102E00006233000161330001603300D0000E000125
:102E1000000160150001656F000E000100016115E1
:102E2000666FFF0E000100016215676F00016551BA
:102E300066116711D8A401D001D0D0D70DD00CD025
:102E40000001000163070001D89000016037000114
:102E500061370001623700D00001000161AF01D08D
:102E600001D0EED70001000163B101D001D004D040
:102E700000010001619F00D00001D8906333000180
:102E8000000163510001676F666B656B000165515E
:102E9000000100016013000166510001000161138F
:102EA000000167510001000162130001000164513B
:102EB000D8B401D001D004D000010001628F00D04D
:102EC00060C060F061C061F062C062F000D01200CA
:102ED0000001646F000E00010001666F0001645183
:102EE0000001000163AF01D001D010D0000100014A
:102EF000626D0001631FD8B0632B0001646F010E87
:102F000000010001666F0001645100D00001000162
:102F100061AF01D001D00CD000010001606D000153
:102F2000611FD8B0612B010E00010001661B00D0AB
:102F3000000E00010001686F000E0001676F0001C4
:102F4000000163516211D8B401D001D04DD000010D
:102F5000646F010E00010001656F000164510AD029
:102F6000000100010001D8906237633700010001C1
:102F7000652B00D00001000163AF01D001D0F0D774
:102F800001D000D0000100010001D89067376837F8
:102F900000010001625100010001605D00010001BB
:102FA0006351000100016159D8A001D001D010D0B7
:102FB00000010001625100010001605F0001000199
:102FC000635100010001615B00010001678100D0D5
:102FD000000100010001D890633362330001000159
:102FE000652FD0D701D000D0000100016651D8B4C0
:102FF00001D001D008D000010001676D0001681FF9
:10300000D8B0682B00D067C060F068C061F000D015
:1030100012000150020DF3CF04F0010E042600014E
:10302000B60E0424D96EDA6A0001000EDA22DF50EF
:10303000D8B401D001D010D00150020DF3CF04F06C
:10304000010E04260001B60E0424D96EDA6A0001CE
:10305000000EDA22DF0675D00150020D0001B60E17
:10306000F324D96EDA6A0001000EDA220001DF5083
:103070000318FE0B03180001DF6E0150020D000162
:10308000B60EF324D96EDA6A0001000EDA220001CE
:10309000DF50010B0218D8A401D001D031D001506B
:1030A000020D0001B60EF324D96EDA6A0001000E9B
:1030B000DA220001DF30010B046E0250D8B401D0D7
:1030C00002D0010E01D0000E0418D8A401D001D006
:1030D00017D00150020DF3CF04F0010E04260001B9
:1030E000B60E0424D96EDA6A0001000EDA22640EEC
:1030F000DF6E50500118E00B0118506E508A00D05E
:103100000150020D0001B60EF324D96EDA6A0001F7
:10311000000EDA220001DF50010B046E0150020D97
:103120000001B60EF324D96EDA6A0001000EDA222D
:1031300004460001DF500418FD0B04180001DF6E87
:1031400000D01200000100016D05000100016B2795
:10315000000E000100016C236BC0D9FF6CC0DAFFC8
:10316000000EDF6E000100016AAF01D001D045D032
:1031700000D069C060F06AC061F0000E000100017B
:10318000636F0A0E0001626FC7EC19F000010001C5
:1031900060510008300F000100016B07D8A06C07D8
:1031A0006BC0D9FF6CC0DAFFDF6E69C060F06AC027
:1031B00061F0000E00010001636F0A0E0001626FF2
:1031C00068EC17F0000160C069F0000161C06AF0AE
:1031D00000016A516911D8A401D001D0CAD700D02A
:1031E000000100016B07D8A06C076BC0D9FF6CC051
:1031F000DAFF2D0EDF6E37D000D069C060F06AC0F4
:1032000061F0000E00010001636F0A0E0001626FA1
:10321000C7EC19F0000100016051300F00010001FE
:103220006B07D8A06C076BC0D9FF6CC0DAFFDF6EEC
:1032300069C060F06AC061F0000E00010001636FB8
:103240000A0E0001626F68EC17F0000160C069F0BF
:10325000000161C06AF000016A516911D8A401D06F
:1032600001D0CBD700D06BC069F06CC06AF01200FF
:1032700000010001E651E511D8B401D001D086D09B
:1032800000010001E3B301D001D080D0E7C068F0B5
:103290000D0E00010001E76101D001D004D0000152
:1032A0000001E72B09D00001606F000E0001000152
:1032B000E76F0001605100D0010E0001606F616B8B
:1032C000626B636B0001000168510001E82A05D0C0
:1032D000D8906037613762376337E82EF9D700013D
:1032E0000001E551000160150001646F000100015B
:1032F000E651000161150001656F000E00016215C5
:103300000001666F000E000163150001676F000188
:103310006751641165116611D8B401D001D0B6D7D8
:1033200000D068C060F0000160476047C2500001F3
:103330006019830B6019C26E68C060F0010E000155
:10334000616F626B0001602B04D0D890000161377F
:1033500062370001602FF9D70001611D0001636F22
:1033600000010001621D646F000163510001000152
:10337000E5170001645100010001E617000100019A
:10338000E38300010001E391C28200D0120000013A
:10339000646F000E00010001666F000164510001BE
:1033A000000161AF01D001D010D000010001606DBB
:1033B0000001611FD8B0612B0001646F010E000194
:1033C0000001666F0001645100D00001000163AF8D
:1033D00001D001D008D000010001626D0001631F1F
:1033E000D8B0632B00D00001000163516211D8B442
:1033F00001D001D044D00001646F010E0001000132
:10340000656F000164510AD0000100010001D890ED
:103410006237633700010001652B00D00001000115
:1034200063AF01D001D0F0D701D000D0000100017E
:10343000625100010001605D000100016351000163
:1034400000016159D8A001D001D00DD000010001C8
:10345000625100010001605F000100016351000141
:103460000001615B00D0000100010001D8906333CE
:10347000623300010001652FD9D701D000D00001CF
:1034800000016651D8B401D001D008D0000100017C
:10349000606D0001611FD8B0612B00D060C060F08A
:1034A00061C061F000D012000150020DF3CF04F0B2
:1034B000010E0426510E0424D96EDA6A000EDA22B7
:1034C000DF50D8B401D001D00ED00150020DF3CF9F
:1034D00004F0010E0426510E0424D96EDA6A000E9F
:1034E000DA22DF0662D00150020D510EF324D96EAC
:1034F000DA6A000EDA22DF500318FE0B0318DF6EC3
:103500000150020D510EF324D96EDA6A000EDA2250
:10351000DF50010B0218D8A401D001D02CD00150EB
:10352000020D510EF324D96EDA6A000EDA22DF3072
:10353000010B046E0250D8B401D002D0010E01D0AC
:10354000000E0418D8A401D001D015D00150020DEE
:10355000F3CF04F0010E0426510E0424D96EDA6A6A
:10356000000EDA22010EDF6E4B500118FC0B011821
:103570004B6E4B8400D00150020D510EF324D96ED6
:10358000DA6A000EDA22DF50010B046E0150020DE0
:10359000510EF324D96EDA6A000EDA220446DF50A7
:1035A0000418FD0B0418DF6E00D012005AA601D0DB
:1035B00001D07AD05A96046E000E016E0450400E6F
:1035C0005D24F66EF76A0F0EF722F86A000EF822F5
:1035D0000800F5505B24056E000E5C20066E800E20
:1035E0000512000E0612040E076ED8900632053240
:1035F000072EFBD70550026EF6EC1DF0046E000E90
:10360000016E0450400E5D24F66EF76A0F0EF7222D
:10361000F86A000EF8220800F5505B248009026E5B
:10362000F6EC1DF03D923A0EF66E0F0EF76E000EA0
:10363000F86E0900F5CF3BF00A00F5CF3CF03D9461
:10364000046E000E016E0450400EF66E0F0EF76E03
:10365000000EF86E0800F5505B24056E000E5C202D
:10366000066E800E0512000E0612040E076ED8902C
:1036700006320532072EFBD70550026EF6EC1DF020
:10368000046E000E016E0450400EF66E0F0EF76EC3
:10369000000EF86E0800F5CF05F05B500524800998
:1036A000026EF6EC1DF000D012000150030DF3CFB6
:1036B00002F0020E02263B0E0224D96EDA6A000ED8
:1036C000DA22DF50036E03B401D001D06CD0015078
:1036D000030D3B0EF324D96EDA6A000EDA22DE52B5
:1036E000DD50800A800F010ED8B4DF5CD8A001D075
:1036F00001D059D00150030D3B0EF324D96EDA6A84
:10370000000EDA22DE06000EDD5A0150030D3B0EDC
:10371000F324D96EDA6A000EDA22DE50DD10D8A466
:1037200001D001D040D00150030DF3CF02F0020EC2
:1037300002263B0E0224D96EDA6A000EDA22020E4D
:10374000DF120150030DF3CF02F0020E02263B0EF2
:103750000224D96EDA6A000EDA22DF50036E03A06B
:1037600001D001D020D00150020D3A0EF324F66EA4
:10377000F76A0F0EF722F86A000EF8220900F5CF5B
:1037800002F00900F5CF03F00150030D3B0EF324C6
:10379000D96EDA6A000EDA2202C0DEFF03C0DDFF56
:1037A00002D001D000D012005934E836010B046E6B
:1037B0005938E832E832010B056E5938E832010B0E
:1037C000051004100009D8B401D001D052D0599A84
:1037D000599C599E046E000E016E04505930010B25
:1037E000056ED8900534066E076A07365950010BEE
:1037F000086E096AD89008360936D8900836093616
:10380000065008100A6E075009100B6E5930E83246
:10381000010B0C6E0C500A12000E0B12080E0A124D
:10382000000E0B12040E0D6E0B340B320A320D2EED
:10383000FBD70A50026EF6EC1DF0046E000E016E0E
:1038400004505930E832010B056E5930010B066EF9
:10385000D8900634076E5950010B086ED890083680
:10386000D8900834071005100809026EF6EC1DF018
:1038700000D03D923A0EF66E0F0EF76E000EF86E07
:103880000900F5CF3BF00A00F5CF3CF03D94120063
:10389000000E00010001666F000E0001656F00015F
:1038A000000163516211D8B401D001D04CD00001A5
:1038B000646F010E00010001676F000164510AD0BE
:1038C000000100010001D890623763370001000158
:1038D000672B00D00001000163AF01D001D0F0D709
:1038E00001D000D0000100010001D8906537663793
:1038F00000010001625100010001605D0001000152
:103900006351000100016159D8A001D001D010D04D
:1039100000010001625100010001605F000100012F
:10392000635100010001615B00010001658100D06D
:10393000000100010001D8906333623300010001EF
:10394000672FD0D700D065C060F066C061F012006C
:103950005DEC0EF0126E02D05F2A00D05F50030DB6
:10396000000EF324F66EF76A0F0EF722F86A000EC7
:10397000F8220800F550050AD8B401D001D014D0BF
:103980005F50030D000EF324F66EF76A0F0EF72258
:10399000F86A000EF8220800F5501218D8A401D0D9
:1039A00001D0DAD701D000D05F50030DF3CF11F072
:1039B000010E1126000E1124F66EF76A0F0EF72283
:1039C000F86A000EF8220800F5CF0EF0ECEC1EF0BD
:1039D0005F50030DF3CF11F0020E1126000E1124DB
:1039E000F66EF76A0F0EF722F86A000EF82208004A
:1039F000F550010D330EF324F66EF76A0F0EF72221
:103A0000F86A000EF8220800F5CF5FF012005A3075
:103A1000010B046E5A50010B04100009D8B401D0F8
:103A200001D03AD05A905A92046E000E016E0450A2
:103A30005930E832E832010B056ED8900534066E35
:103A4000076A07365938010B086E08500612000E37
:103A50000712040E0612000E0712040E096E073438
:103A600007320632092EFBD70650026EF6EC1DF027
:103A7000046E000E016E04505938010B056E59306A
:103A8000E832E832010B066ED890063405100409BE
:103A9000026EF6EC1DF000D03D923A0EF66E0F0E5F
:103AA000F76E000EF86E0900F5CF3BF00A00F5CF77
:103AB0003CF03D9412000001000163516211D8B442
:103AC00001D001D043D00001646F010E000100015C
:103AD000656F000164510AD0000100010001D89017
:103AE0006237633700010001652B00D0000100013F
:103AF00063AF01D001D0F0D701D000D000010001A8
:103B0000625100010001605D00010001635100018C
:103B100000016159D8A001D001D00DD000010001F1
:103B2000625100010001605F00010001635100016A
:103B30000001615B00D0000100010001D8906333F7
:103B4000623300010001652FD9D700D060C060F05A
:103B500061C061F01200000100016C05000100016C
:103B60006A27000E000100016B236AC0D9FF6BC0F9
:103B7000DAFF000EDF6E00D068C060F069C061F04F
:103B8000000E00010001636F0A0E0001626F5BEC22
:103B90001DF0000100016051300F000100016A07B3
:103BA000D8A06B076AC0D9FF6BC0DAFFDF6E68C0B0
:103BB00060F069C061F0000E00010001636F0A0E41
:103BC0000001626F48EC1CF0000160C068F0000169
:103BD00061C069F0000169516811D8A401D001D019
:103BE000CBD76AC068F06BC069F01200016602D0E2
:103BF000819801D0818802B601D002D0010E01D097
:103C0000000E036E03320332815003187F0B03183A
:103C1000816E02B401D002D0010E01D0000E036EFD
:103C200003320332835003187F0B0318836E02B2F2
:103C300001D002D0010E01D0000E036E033A0346FC
:103C4000034681500318BF0B0318816E02B001D0E8
:103C500002D0010E01D0000E036E034681500318FE
:103C6000FD0B0318816E818A819A12000F010F01EA
:103C70005D910F010F015D930F010F015D850F0134
:103C80000F015D970F010F015D990F010F015D9B02
:103C90000F010F015D9D0F010F015D9F0F010F01CE
:103CA0005C910F010F015C930F010F015C950F01F7
:103CB0000F015C970F010F015C990F010F015C9BD5
:103CC0000F010F015C9DC198C19AC196C08EC05072
:103CD000C70B0809C06EC050F80B0609C06EC28041
:103CE0009E9C9D8C120000016B6F000E0001000174
:103CF0006C6F00016B510001000169AF01D001D070
:103D000010D000010001686D0001691FD8B0692B57
:103D100000016B6F010E000100016C6F00016B511F
:103D200000D00001000168C060F00001000169C01E
:103D300061F000010001626B00016B6F8E0E0001EB
:103D40000001636F00016B516CC064F0A6EC16F0CB
:103D500060C068F061C069F062C06AF000D0120013
:103D6000000120EE08F000016151D92600016251E6
:103D7000DA22DF50D8A401D001D009D061C0D9FF28
:103D800062C0DAFF000EDB8626D025D024D00001E9
:103D900020EE08F000016151D92600016251DA22BB
:103DA000DF06000120EE03F000016151D926000179
:103DB0006251DA22DFCF63F0010EDE26DFCF64F03E
:103DC000000EDD2263C0D9FF64C0DAFF000160C0CD
:103DD000DFFF01D000D012001DD053EC20F037D00F
:103DE00076EC20F034D007EC1DF031D0D4EC1BF091
:103DF0002ED060EC1FF02BD0B6EC20F028D002ECD7
:103E000021F025D0F8EC1FF022D0D6EC1AF01FD00C
:103E10001ED01DD00E50000AD8B4DFD7010AD8B486
:103E2000DFD7030AD8B4DFD7010AD8B4DFD7070A2F
:103E3000D8B4DFD7010AD8B4DFD7030AD8B4DFD7A4
:103E4000010AD8B4DFD70F0AD8B4DFD700D01200E8
:103E50009B8CFC0ED316D08EF19E0F010F015B6977
:103E60000F010F01568FA2929F90CD9CCD9ECD98B1
:103E7000CD8ACD84F80ECF6EE00ECE6ECD80B19C93
:103E8000B19EB198B19AB184FC0EB36EE00EB26EE1
:103E9000B180929093989396939A9392939C959EC7
:103EA000939E948A958A9380938492929598949EF7
:103EB00080909D80A082F28CF28EF28EF28C1200A5
:103EC00000010001D997DEC0DAF0DFC0DBF0E2C00C
:103ED000E0F0046E000E016E0450400EF66E0F0E00
:103EE000F76E000EF86E0800F550056E066A800E3B
:103EF0000512000E0612040E076E06340632053255
:103F0000072EFBD70550026EF6EC1DF0046E000E76
:103F1000016E0450400EF66E0F0EF76E000EF86E36
:103F20000800F5508009026EF6EC1DF0120020EE3C
:103F300007F00150D9260250DA22DF50D8A401D070
:103F400001D00AD001C0D9FF02C0DAFF000EDB8623
:103F5000FF0E1ED01DD01CD020EE07F00150D92638
:103F60000250DA22DF0620EE01F00150D92602507D
:103F7000DA22DFCF03F0010EDE26DFCF04F0000EE1
:103F8000DD2203C0D9FF04C0DAFFDF5001D000D02A
:103F9000120000EEE3F0070EEE6AE806FDE100EE27
:103FA0003BF0160EEE6AE806FDE1D60EF66E410E07
:103FB000F76E000EF86E00EEB6F010EE2DF0090070
:103FC000F5CFEEFFE550E150FAE15E0EF66E420EDF
:103FD000F76E000EF86E00EE51F010EE0EF00900D4
:103FE000F5CFEEFFE550E150FAE10001AFEF0FF041
:103FF000046E000E016E0450410EF66E0F0EF76E49
:10400000000EF86E0800F550056E066A800E051267
:10401000000E0612040E076E063406320532072E15
:10402000FBD70550026EF6EC1DF0046E000E016E1B
:104030000450410EF66E0F0EF76E000EF86E08007B
:10404000F5508009026EF6EC1DF01200444A452A34
:104050004550030AE90ED8B44418D8A401D001D0C1
:1040600006D0000E456E000E446E828E00D082AEE9
:1040700001D001D017D0464A472A010E4824016ECC
:10408000000E4920026E4750021802E14650011806
:10409000D8A401D001D006D0000E476E000E466EA7
:1040A000829E00D01200046E000E016E0450056E58
:1040B000020E026E0550F6EC1DF0046E000E016E4D
:1040C0000450056E280E026E0550F6EC1DF03D9270
:1040D0003A0EF66E0F0EF76E000EF86E0900F5CF71
:1040E0003BF00A00F5CF3CF03D941200046E000E48
:1040F000016E0450056E000E026E0550F6EC1DF0C8
:10410000046E000E016E0450056E010E026E055025
:10411000F6EC1DF03D923A0EF66E0F0EF76E000EA5
:10412000F86E0900F5CF3BF00A00F5CF3CF03D9466
:10413000120020EE07F00150D9260250DA22DF2AC1
:10414000010EDF6201D001D007D001C0D9FF02C04B
:10415000DAFFF70EDF1600D020EE01F00150D9266D
:104160000250DA22DE06000EDD5A12000001000EB7
:10417000026E0001D90E016E97EC1FF0066E056EFF
:10418000010E016E055006380F0B026EF6EC1DF0A5
:10419000056E010E016E055006C002F0F6EC1DF032
:1041A0001200819A81963D923A0EF66E0F0EF76ECE
:1041B000000EF86E0900F5CF3BF00A00F5CF3CF099
:1041C0003D94330EF66E0F0EF76E000EF86E08007B
:1041D000F5CF5FF0120003000300030003000300AB
:1041E00003000300030000003132335F635F647833
:1041F0000A242E3F2E2B2E2A7A03C800C800C8009E
:10420000111111003D923A0EF66E0F0EF76E000E70
:10421000F86E0900F5CF3BF00A00F5CF3CF03D9475
:104220001200C230E8321F0B00010001E46F0001F0
:104230000001E3819E9C120000010001E393000154
:104240000001E391C3CF60F0C4CF61F01200FC0E17
:10425000B36EE00EB26E26EC20F0A19212000300C5
:10426000030003000300E907000000000001606F85
:0E427000010E4D6E000160511200120012008E
:020000040020DA
:080000000000000000000000F8
:020000040030CA
:040000001D18027C49
:02000500099060
:06000800000000800F4023
:0200000400F00A
:080000000002000A00000000EC
:00000001FF
